:1000000050C0B6C16AC069C068C067C066C065C07C
:1000100064C063C062C061C060C05FC05EC00902EE
:100020002200010100801909040000010300000002
:100030000921010100012223000705810308000AAC
:100040001201100100000008424231E100010102EA
:100050000001160345006100730079004C006F0039
:10006000670067006500720012036F0062006400A1
:10007000650076002E006100740004030904050188
:100080000906A101050719E029E7150025017501F9
:10009000950881029501750825651900296581007B
:1000A000C00011241FBECFE5D1E0DEBFCDBF10E000
:1000B000A0E6B0E0EAE0F9E003C0C89531960D9201
:1000C000A436B107D1F710E0A4E6B0E001C01D925C
:1000D000A43BB107E1F722D317C492CFCF93B92F36
:1000E000A82FC62F8091600084FF07C080918A00EE
:1000F00098E8892780938A0003C08AE5809360008E
:10010000EBE8F0E09C2F91509F3F19F08D91819387
:10011000FACF6C2F8BE890E014D1CC5FC0936000D5
:10012000CF9108951F93CF93DF9390919A00191662
:100130000CF083C080919700CAEAD0E0C81BD109B7
:10014000935030E010E8809196008D3209F06FC036
:100150008AE580936100983009F069C088818076D3
:1001600009F05AC088E890E0309388002981222362
:1001700021F43093890032E044C0253021F48A8193
:1001800080939B004DC0263071F510EC8B8181303F
:1001900019F480E490E013C0823021F48EE190E005
:1001A00032E22FC0833099F48A81882321F48AE7D0
:1001B00090E034E026C0813021F488E690E032E11E
:1001C00020C0823069F582E590E036E11AC08132C4
:1001D00021F480E390E039E014C0823209F58EE723
:1001E00090E033E20EC0283019F48DE990E008C0A9
:1001F000293021F48A8180939D0012C02A3031F485
:1002000031E090939900809398000AC02B3041F41C
:1002100083EC80938A0004C08C2F9D2F13D2382F3B
:100220008F81882321F48E81831708F4382F10934F
:1002300065003093620010929A008091610084FF03
:1002400044C0809162008F3F09F43FC0682F89301D
:1002500008F068E0861B809362001BE480916500D3
:1002600080FD13EC8F5F80936500A0E8B0E0E09123
:100270009800F0919900962F915086FF08C09F3FFB
:1002800061F0C895802D8D9331969150F8CF9F3FA6
:1002900021F081918D939150FACFF0939900E093E2
:1002A00098007727C62F693040F480E890E049D065
:1002B0009C2F9C5FC83028F401C09EE18FEF809393
:1002C000620010937F00909361009AE086B385707E
:1002D00011F49150D9F7992321F490939B009093B6
:1002E0009500C0E0992309F4C1E0809164008C1767
:1002F00029F0CC2309F4CED1C0936400DF91CF91D3
:100300001F91089585B7836085BF8BB780648BBFCD
:1003100083EC80938A000895A82FB92F80E090E0A5
:1003200041E050EA60956F5F58F42D9138EF8227D5
:100330009795879510F0842795273F5FC8F3F3CFF3
:100340000895EADF8D939D930895A6E08827992765
:10035000AA9569F00197E1F3B099FCCFB09BFECF6D
:1003600081E09927A6B3019611F0A570D9F70895F9
:10037000CF93CFB7CF93B09BFECFB09B0BC0B09BBA
:1003800009C0B09B07C0B09B05C0B09B03C0B09B29
:1003900001C0D5C00F92DF93C0919700DD27C256F0
:1003A000DF4F012EB09B03C0DF910F90E6CF2F935C
:1003B0000F931F934F932FEF4F6F06B300FB20F95E
:1003C0005F933F9350E03BE065C016B30126502990
:1003D00050FDC89556B3012700FB25F92F7306B3CE
:1003E000B1F05027102710FB26F906B22230F0F0AA
:1003F00000C016B3012700FB27F90126502906B2D9
:100400002430E8F54F77206816B30000F6CF502768
:100410004F7D206206B2102F000000C006B30026F8
:100420005029102710FB26F906B2E2CF4F7B06B306
:10043000206400C0DACF01265029157006B269F198
:100440004E7F2160012F16B328C0002650294D7F12
:1004500006B22260102F29C0012650294B7F06B218
:100460002460012F2DC016B301265029477F286034
:10047000000006B22EC04F7E06B3206130C0422776
:1004800006B3499300265029102706B24FEF10FB00
:1004900020F9297F16B379F2157059F101265029F8
:1004A00006B2012700FB21F9237F06B371F2002673
:1004B00050293150D0F006B2102710FB22F9277EC8
:1004C00016B351F201265029012700FB06B223F989
:1004D0002F7C49F2000006B3102710FB24F90026F8
:1004E000502906B22F7939F270CF10E41ABF0027D5
:1004F00019C03B503195C31BD04010E41ABF08818E
:10050000033C09F10B34F9F0209195001981110F8A
:100510001213EDCF4A81441F093651F10D3211F00B
:10052000013E29F700939C003F915F914F911F91ED
:100530000F912F91DF910F90CAB7C6FD1CCFCF91BD
:10054000CFBFCF91189500919C00002369F31091C3
:100550009A00112379F534307AF130939A000093A0
:100560009600109197003BE0311B3093970024C018
:1005700000919A000130F4F40AE54F7049F430918B
:10058000610034FD1AC000936100CFE7D0E019C0CC
:100590003091600034FD11C000936000CAE8D0E0E3
:1005A00010C0052710E000C021C0052710E0C89545
:1005B00008BB14C03AE501C032ED032EC0E0D0E024
:1005C00032E017B31560C09A08B317BB55E020E8B6
:1005D0004FEF20FF052708BB279517951C3F28F7ED
:1005E00000004552B0F720FF0527279508BB179557
:1005F0001C3FB8F629913A9561F70A7F10919B004C
:10060000110F08BBC250D04011F01093950010E4B8
:100610001ABF016017B31A7F402F4A7F54E05A95E2
:10062000F1F708BB17BB48BB7FCF80E0E0917D00AE
:10063000F0917E00309709F08081109268008093DD
:1006400069000895F92FE82F88E690E090939900CB
:100650008093980080819927807690708097B9F474
:100660008181813021F4E1DF82E090E008958230E1
:1006700049F48AE690E0909399008093980081E095
:1006800090E008958A3019F4838180936A0080E0B5
:1006900090E00895EF92FF920F931F93CF9310E88D
:1006A00000E0C02FC10FC1BF50DE29E084339207A4
:1006B0000CF40C2F1695A9F7C02FE82EF92EC15077
:1006C000C1BFCF5F81B7282F33270C2F1127912F60
:1006D000802F019682179307ACF037DE8453994040
:1006E00097FF03C0909581959F4F8E159F051CF431
:1006F000E82EF92EC1B781B78F5F81BF81B7282F50
:100700003327E5CFC1BFA0E0B0E081B7082EF0D01D
:10071000CF911F910F91FF90EF900895CFE5D1E019
:10072000DEBFCDBFA0E0B0E0DBD0802D282F332787
:100730002F3F09F021BFB89AE3EBF1EF23E18E2FB1
:100740009F2F0197F1F7215027FFF9CFB898BC9A56
:10075000C19A88E190E02EE00FB6F894A89581BD8B
:100760000FBE21BD8BE080BF83E987B987E886B9DA
:10077000C9DD7894A895D6DC8091600084FF1CC008
:1007800080917D0090917E00892BB1F04EDF62E078
:1007900088E690E0A3DCE0917D00F0917E00319648
:1007A000F0937E00E0937D00319781818F3F21F4AB
:1007B00010927E0010927D0008B602FE29C084E0EF
:1007C00088BF96B3927080916700891781F09093EB
:1007D0006700992361F480916C00882309F491E00B
:1007E00090936C00992311F0C49A01C0C498809131
:1007F00066008F5F809366008F3350F01092660022
:1008000080916C00882321F081E080936B00369A00
:1008100080916B00882309F4ADCF3699ABCF10924D
:100820006B00C4B1D5B18C2F9D2F969587958C0FF9
:100830009D1FC80FD91F8FEF80937C0010927B0003
:100840008AE790E090937E0080937D0088E2809319
:100850007A0017E28C2F9D2F6AE070E02BD0282FB2
:10086000392F482F8C2F9D2F6AE070E023D0D72F8F
:10087000C62FE0917D00F0917E003197F0937E00CD
:10088000E0937D001082E0917D00F0917E002223B4
:1008900039F43197F0937E00E0937D00108307C018
:1008A0003197F0937E00E0937D00435E4083209774
:1008B00089F660CFAA1BBB1B51E107C0AA1FBB1F53
:1008C000A617B70710F0A61BB70B881F991F5A95DC
:1008D000A9F780959095682F792F8A2F9B2F0895DF
:1008E000E199FECFBFBBAEBBE09A11960DB2089561
:1008F000E199FECFBFBBAEBB0DBA11960FB6F8940F
:0A090000E29AE19A0FBE0895FFCFBE
:04090A005A5AFF0036
:00000001FF
